:020000040800F2
:10000000580A0020C101000889180008D110000812
:1000100085180008D9020008A51F0008000000008C
:10002000000000000000000000000000651A000849
:10003000110300080000000019190008891B0008BE
:10004000DB010008DB010008DB010008DB01000820
:10005000DB010008DB010008DB010008DB01000810
:10006000DB010008DB010008DB010008DB01000800
:10007000DB010008DB010008DB010008DB010008F0
:10008000DB010008DB010008DB010008DB010008E0
:10009000DB010008DB010008DB010008DB010008D0
:1000A000DB010008DB010008DB010008DB010008C0
:1000B000DB010008DB010008DB010008DB010008B0
:1000C000DB010008DB010008DB010008DB010008A0
:1000D000DB010008DB010008DB0100086D1C0008E3
:1000E000DB010008DB010008DB010008DB01000880
:1000F000DB010008DB010008DB010008DB01000870
:10010000DB010008DB010008DB010008DB0100085F
:10011000DB010008DB010008DB010008DB0100084F
:10012000DB010008DB010008DB010008DB0100083F
:10013000DB010008DB010008DB010008DB0100082F
:10014000DB010008DB010008DB010008DB0100081F
:10015000DB010008DB010008DB010008DB0100080F
:10016000DB010008DB010008DB010008DB010008FF
:10017000DB010008DB010008DB010008DB010008EF
:10018000DB010008DB010008DB010008DB010008DF
:10019000DB010008DB010008DB010008DB010008CF
:1001A000DB010008DB010008DB010008DFF80CD0F0
:1001B00000F080F8004800477D240008580A00201D
:1001C0000648804706480047FEE7FEE7FEE7FEE7F1
:1001D000FEE7FEE7FEE7FEE7FEE7FEE7F91B0008A5
:1001E000AD01000840EA01039B0703D009E008C9FC
:1001F000121F08C0042AFAD203E011F8013B00F8EC
:10020000013B521EF9D27047D2B201E000F8012B37
:10021000491EFBD270470022F6E710B513460A4686
:1002200004461946FFF7F0FF204610BD421E12F8A3
:10023000013F002BFBD111F8013B02F8013B002BE1
:10024000F9D1704730B505462A460B4612F8010B26
:1002500013F8014B08B1A042F8D01CB1002802D01D
:100260006D1CF1E7284630BD421C10F8011B002927
:10027000FBD1801A7047034611F8012B00F8012BBF
:10028000002AF9D11846704730B50B4601460020C8
:100290002022012409E021FA02F59D4205D303FA48
:1002A00002F5491B04FA02F52844151EA2F10102C9
:1002B000F1DC30BD064C074D06E0E06840F001037C
:1002C00094E8070098471034AC42F6D3FFF772FF6A
:1002D000B0280008D028000800BFFEE71CB50121A7
:1002E000102001F01BFB0420009001208DF8040079
:1002F00000208DF8060001208DF8070002208DF8FF
:1003000005006946014800F06BFE1CBD001002406C
:100310007047000000B587B00121084601F0FEFAE1
:100320000121102001F01AFB07220A211D4800F0CC
:100330009FFE072209211B4800F09AFE00208DF83D
:100340001A0001208DF81B0002208DF81800000211
:10035000059002208DF8190005A9124800F040FE12
:1003600002208DF818004002059005A90D4800F004
:1003700037FE4FF4E13001900020ADF80800ADF8F1
:100380000A00ADF80C00ADF810000C20ADF80E001E
:1003900001A9054801F010FD0121034801F0A4FC6A
:1003A00007B000BD000002400010014001B5044943
:1003B0000098086000BF024800680028FBD108BD13
:1003C0002400002010B5002408210C4800F07EFE17
:1003D0000B48FFF7EBFF0CE04FF4FA73002209A182
:1003E00009A000F013F800B110BD00F001FD601C81
:1003F000C4B20A2CF0DB00BFF6E70000000C02409C
:1004000040420F004F4B0000415400002DE9F041E5
:1004100006460C4615461F462748B0F800046FF301
:100420000E002549A1F80004324624A1254801F018
:1004300036FD1CB915B90120BDE8F0814FF47A7181
:1004400007FB01F0FFF7B2FF00201B49B1F80014D1
:10045000C1F30E01184A505411461BA001F0B4FD1F
:10046000B4B1ADB121461448FFF7ECFE08B101204C
:1004700000E0002040B929460F48FFF7E3FE08B12D
:10048000012000E0002008B10120D5E70020D3E7DB
:1004900044B121460848FFF7D5FE08B10120CBE75B
:1004A0000020C9E729460448FFF7CCFE08B1012027
:1004B000C2E70020C0E700005400002025730D0AA9
:1004C00000000000004800402573000010B586B011
:1004D00004460CB1012000E00020024606A101A85C
:1004E00001F082FD4FF4FA73002207A101A8FFF783
:1004F0008DFF06B010BD000041542B4349504D55AF
:10050000583D2564000000004F4B00001CB5012140
:10051000084601F003FA0820009001208DF804003D
:100520008DF8070002208DF805006946064800F0A6
:1005300057FD0121082001F0F1F9082000906946DB
:10054000024800F04DFD1CBD00000240000C0240BE
:1005500010B5FFF7DBFF00F0ABFC0821034800F00B
:10056000B5FD0821024800F0AFFD10BD000C0240AF
:100570000000024030B59FB004460D462B4622468F
:1005800006A101A801F030FD41F28833002208A144
:1005900001A8FFF73BFF1FB030BD000041542B43C3
:1005A000574A41503D222573222C222573220000F8
:1005B0004F4B0000F0B5B9B006460F4614461D4635
:1005C000642120A8FFF727FE16B1012E10D107E005
:1005D0003B4614A214A120A8009401F005FD08E0F8
:1005E0003B4615A210A120A8009401F0FDFC00E0FC
:1005F00000BF00BF052D06DA20AB2A460FA102A8D6
:1006000001F0F2FC04E020AA11A102A801F0ECFC28
:100610004FF47A6312A216A102A8FFF7F7FE39B0D1
:10062000F0BD000054435000222573222C22257374
:10063000222C2573000000005544500041542B43E8
:10064000495053544152543D25642C2573000000F9
:1006500041542B43495053544152543D257300009B
:10066000414C5245415920434F4E4E4543540000A2
:100670004F4B00002DE9F04FADF2A46DF4A001F056
:10068000A3FC0821F94800F021FDFFF79BFE0020A4
:1006900000F072FB00BFF6A1F8A0FFF76BFF002887
:1006A000F9D00020FFF712FF00BF0523F6A2F8A142
:1006B0000020FFF77FFF0028F7D000BF00F06AFCA2
:1006C0000028FBD0F6A001F07FFCFBA0CDF8A0062F
:1006D00064254FF47A7B4FF000084FF005092F4650
:1006E000384601F0F5FE04460FF2E03A5046FFF7B7
:1006F000BBFDCDF8900600BF00BF0020CDF88806F6
:100700000120CDF88406CDF880060020CDF86C06D7
:10071000CDF87006CDF874065822ED490DF214603C
:10072000FFF760FD59461BFB01F0FFF73FFEE9A014
:10073000CDF820061420ADF82C0601208DF82E06E9
:10074000E7A0CDF85406E8A0CDF860060DF21462DB
:100750002946204600F094FECDF88C0640F2DC518C
:100760000EA8FFF758FDE2A10EA8DDF88C2601F0D7
:100770003BFC052300220EA9012000F04BFB214683
:10078000DDF88C26DDF8A00601F01CFF0646012EE0
:1007900013D03246DEA10EA801F026FC052300226C
:1007A0000EA9012000F036FB204601F00DFE4FF0AF
:1007B000FF300DF2A46DBDE8F08FE34A29462046D4
:1007C00000F02AFE02280FD0E0A10EA801F00CFCD8
:1007D000052300220EA9012000F01CFB204601F099
:1007E000F3FD4FF0FF30E4E72B4622460DF2946113
:1007F000081D00F0CFFC012802D19DF8940688B1B5
:100800009DF89426D8A10EA801F0EEFB0523002246
:100810000EA9012000F0FEFA204601F0D5FD4FF0B0
:10082000FF30C6E7D9A0CDF86C060DF5D1600DF20A
:100830006C610122CDE900210290DDF8840683B2CB
:1008400000222946204600F07CFFCDF88C06D1A17D
:100850000EA8DDF88C2601F0C7FB052300220EA9A7
:10086000012000F0D7FA2146DDF88C26DDF8A0063D
:1008700001F0A8FE0646012E10D03246CCA10EA8EB
:1008800001F0B2FB052300220EA9012000F0C2FAFC
:10089000204601F099FD4FF0FF308AE7AA4A294629
:1008A000204600F0B9FD09280FD0CCA10EA801F018
:1008B0009BFB052300220EA9012000F0ABFA204685
:1008C00001F082FD4FF0FF3073E70DF27C631A1FD9
:1008D00001210DF29C60CDE9004500F0EAFCDDF855
:1008E0007C0688B1C4A10EA8DDF87C2601F07CFB53
:1008F000052300220EA9012000F08CFA204601F009
:1009000063FD4FF0FF3054E7A0A0CDF86C06D4E1B2
:100910000121564800F0F8FB80464246BCA10EA8D3
:1009200001F062FB052300220EA9012000F072FAFB
:10093000B8F1010F0FD1BBA10EA801F055FB0523A3
:1009400000220EA9012000F065FABE48FFF72EFD37
:100950000020CDF880067C4A2946204600F05CFD48
:1009600003281CD10CA808A902AA31C2019105A82C
:1009700009AB0AAA0DA900900BA800F046FCB2A191
:100980000EA8089B0C9A01F02FFB052300220EA94C
:10099000012000F03FFAB248FFF708FD00BFB1A107
:1009A0000EA801F021FB052300220EA9012000F072
:1009B00031FAAB48FFF7FAFCDDF89006CDE905A067
:1009C0000DF26C6007C802AB07C30020009003461D
:1009D000024629460190204600F04AFECDF88C06DA
:1009E000A5A10EA8DDF88C2601F0FEFA0523002251
:1009F0000EA9012000F00EFA9248FFF7D7FC0DE097
:100A00002146DDF88C26DDF8A00601F0DBFD064668
:100A1000012E00D105E08B48FFF7C8FCB9F1000FAB
:100A2000EEDC00BFB9F1000F10D1012E0ED032461E
:100A300095A10EA801F0D8FA052300220EA90120E5
:100A400000F0E8F97F48FFF7B1FC3BE132E100003C
:100A50000D0AD5FDD4DAC5E4D6C32045535038324B
:100A60003636202E2E2E2E2E2E0D0A00000002408D
:100A70006463686970323031390000005244436564
:100A80006E746572000000003830383000000000DD
:100A90003139322E3136382E312E313536000000C4
:100AA0000D0AC5E4D6C3204553503832363620CD22
:100AB000EAB1CF0D0A00000034372E39382E31311B
:100AC000392E3132333A31383833000036340000B1
:100AD000582800086D746F7069635F6964000000D6
:100AE00061646D696E00000068656C6C6F000000E9
:100AF000CCE1B9A9B5C4BBBAB3E5C7F8B5C4D7D67C
:100B0000BDDAB3A4B6C8206C656E2025640A000067
:100B1000B4ABCAE4B7A2CBCDB0FCBBBAB3E5C7F85F
:100B2000207472616E73706F72745F73656E64505F
:100B300061636B6574427566666572204572726F9B
:100B4000722025640A000000A12500084D5154546C
:100B50005061636B65745F7265616420213D204361
:100B60004F4E4E41434B0A00556E61626C652074D6
:100B70006F20636F6E6E6563742C2072657475727E
:100B80006E20636F64652025640A00006D746F70C9
:100B900069630000B6A9D4C4B7B5BBD8B5C4CAFD53
:100BA000BEDDB3A4B6C8206C656E2025640A0000C3
:100BB00032323232207472616E73706F72745F738E
:100BC000656E645061636B6574427566666572201C
:100BD0004572726F722025640A0000004D51545412
:100BE0005061636B65745F7265616420213D2053C1
:100BF000554241434B0A00006772616E7465642080
:100C0000716F7320213D20302C2025640A000000E4
:100C1000BCFCD6B5206B65795F76616C7565202567
:100C2000640D0A004B657931206973207072657319
:100C300073656420646F776E202C2065786974205A
:100C40000D0A000040420F006D65737361676520F7
:100C50006172726976656420252E2A730A0000008D
:100C6000A08601007075626C697368696E67207296
:100C7000656164696E670A003333333333206C6512
:100C80006E2025640A000000333333332074726110
:100C90006E73706F72745F73656E645061636B65C1
:100CA00074427566666572204572726F72202564A3
:100CB0000A0000001F48FFF779FBDDF880060028D6
:100CC0007FF426AE00BF1CA10EA801F08DF905230C
:100CD00000220EA9012000F09DF81B48FFF766FBDB
:100CE0002946204600F0BBFCCDF88C062146DDF8F5
:100CF0008C26DDF8A00601F065FC0646012E13D017
:100D0000324612A10EA801F06FF9052300220EA9A8
:100D1000012000F07FF80C48FFF748FB204601F067
:100D200053FB4FF0FF3044E5204601F04DFB00201F
:100D30003FE5000080841E00D5FDD4DAB6CFBFAAFF
:100D4000C1ACBDD30A00000040420F00343434343B
:100D5000207472616E73706F72745F73656E64502D
:100D600061636B6574427566666572204572726F69
:100D7000722025640A00000010B5044624B1012C3D
:100D80000AD0022C18D10FE040F6C4130BA20EA11A
:100D90000EA0FFF73BFB10BD40F6C41307A20AA14B
:100DA0000DA0FFF733FBF6E740F6C41303A206A13C
:100DB0000CA0FFF72BFBEEE70020ECE76E6F206343
:100DC00068616E67650000004F4B000041542B4383
:100DD000574D4F44453D310041542B43574D4F44EF
:100DE000453D320041542B43574D4F44453D330060
:100DF00010B50821054800F067F90548FFF7D6FA55
:100E00000821024800F062F910BD0000000C024009
:100E100020A107002DE9F04186B007460C46154693
:100E20001E464FF000083FB1224613A1134801F0BF
:100E300036F84FF001081BE0052E06DAAB1C3246EF
:100E40000FA101A801F0D0F804E0AA1C11A101A88B
:100E500001F0CAF86423002212A101A8FFF7D6FA14
:100E60004FF4FA73002210A12046FFF7CFFA804614
:100E7000404606B0BDE8F081257300000048004000
:100E800041542B43495053454E443D25642C256421
:100E90000000000041542B43495053454E443D252A
:100EA000640000003E20000053454E44204F4B009C
:100EB00000B587B00121022000F030FD0121880437
:100EC00000F03CFD07220B21264800F0D1F8072254
:100ED0000A21244800F0CCF800208DF81A000120E7
:100EE0008DF81B0002208DF81800400205900220AA
:100EF0008DF8190005A91B4800F072F802208DF842
:100F000018008002059005A9164800F069F84FF412
:100F1000E13001900020ADF80800ADF80A00ADF80E
:100F20000C00ADF810000C20ADF80E0001A90E4821
:100F300000F042FF01210C4800F0D6FE012240F2F1
:100F40002551094800F013FF012240F224410648D0
:100F500000F00DFF00F00AF80121034800F0C4FE84
:100F600007B000BD000402400048004008B54FF43F
:100F7000A06000F0C7FC27208DF8000000208DF84D
:100F800001008DF8020001208DF80300684600F092
:100F90007DFC08BD10B54FF4FA73002207A108A02C
:100FA000FFF734FA08B9002010BD4FF4FA7308A215
:100FB00002A108A0FFF72AFAF6E700004F4B000055
:100FC00041542B4349504D4F44453D3100000000F2
:100FD0003E00000041542B43495053454E4400000D
:100FE000F0B50A4600210023002400BF3DE00125A2
:100FF00005FA01F3156805EA03049C4234D105683B
:101000004F000326BE40B543056015794E00B5403C
:101010000668354305601579012D02D01579022D3A
:1010200016D185684F000326BE40B54385605579CB
:101030004E00B540866835438560456801268E4080
:10104000B5434560456896798E40B6B235434560F4
:10105000C5684F000326BE40B543C560D5794E0034
:10106000B540C6683543C560491C1029BFD3F0BDE3
:10107000F0B5002300244D07ED0E02FA05F3CE1063
:1010800000F1200555F826504E07F70E0F26BE40FA
:10109000B543CF1000F1200646F82750CE1000F1DE
:1010A000200555F8265045EA0304CE1000F120052E
:1010B00045F82640F0BD0246002013690B400BB1F5
:1010C000012000E000207047418370470183704792
:1010D00000BFFEE71CB50121052000F01FFC012028
:1010E000009000208DF804008DF80700694605483F
:1010F000FFF776FF4FF40050009069460148FFF774
:101100006FFF1CBD0008024070B505460C46A1B239
:101110002846FFF7D0FF012808D100BFA1B228461A
:10112000FFF7C9FF0128F9D0012070BD0020FCE7BE
:101130001CB50121802000F0F1FB4FF4806000908D
:1011400001208DF8040000208DF8060001208DF8A4
:10115000070000208DF8050069460D48FFF740FFA5
:101160004FF40060009069460948FFF739FF4FF4DB
:101170008050009069460648FFF732FF4FF48060C8
:1011800003491831088040000880400008801CBDD9
:10119000001C02402DE9FF4704460D4616469946BD
:1011A00000200390029600278046009002A801F0DC
:1011B000C5F98DF80C000398C0F30310022800D085
:1011C0001FE001A9029800F0E9F88046029908445E
:1011D0000290DDE9011047180298381A022800DA57
:1011E0000FE002A801F0AAF98DF80000009800F0C5
:1011F0000100207002A801F0A1F928704FF0010849
:1012000000BF404604B0BDE8F0872DE9FF5F064609
:101210000C4617469846DDE90FABDDF83890002004
:10122000039011980290002500200190009002A8E0
:1012300001F084F98DF80C000398C0F30310032823
:1012400000D032E00398C0F3C00030700398C0F3C0
:1012500041002060039800F0010038706946029850
:1012600000F09CF8019002990844029000990298BD
:1012700045182A4602A9484601F074F910B10298AF
:10128000281A00D511E02068002804DD02A801F02A
:101290005CF9A8F800000298281ACBF80000029820
:1012A000CAF800000120019000BF019804B0BDE819
:1012B000F09F2DE9FE4F05460E4614461F46DDE918
:1012C0000C9B00200290CDF804908046824601A835
:1012D00001F034F98DF808000298C0F303100928D2
:1012E00000D02CE06946019800F058F88246019938
:1012F00008440190DDE9001000EB01080198A8EB1B
:101300000000022800DA1AE001A801F01EF9288086
:10131000002020600DE02068B04202DD4FF0FF3A6F
:101320000DE001A801F00AF92268511C216047F87C
:10133000220001984045EED34FF0010A00BF50460D
:10134000BDE8FE8F2DE9F84305460C46012600272F
:101350000020206000BF4FF0FF38781C07460428AB
:1013600001DD00BF17E001216846A8478046B8F1BB
:10137000010F00D00FE09DF8001001F07F01206800
:1013800001FB06002060F6019DF8000000F08000DF
:101390000028E0D100BF3846BDE8F88370B50446A8
:1013A0000D460348046029460248FFF7CBFF70BD95
:1013B000280000207D23000830B50246002300BF2E
:1013C0000846CD1701EB5565ED11A1EBC515ECB243
:1013D000CD1701EB5565E911002901DD44F08004CA
:1013E00018465B1C14540029EADC184630BD000086
:1013F000401C802801DA401C0AE0B0F5804F01DA79
:10140000801C05E00349884201DAC01C00E0001D91
:1014100070470000FFFF1F002DE9FC4104460F4606
:1014200015464FF0FF380020019000260090012162
:101430002046A847012800D01EE00126694628461C
:10144000FFF780FF601C0099FFF7B6FF0644009885
:101450003044B84200DD0FE0009830B1A019009987
:10146000A8470099884200D006E020788DF8040053
:101470000198C0F3031800BF4046BDE8FC8100009E
:101480002DE9FE4305460E461446029500200190C4
:10149000009000274FF0FF38204600F0A5F80746DF
:1014A0008146FFF7A5FFB04202DD6FF001088FE033
:1014B00000208DF80400019820F0F0001030019019
:1014C0009DF8041002A801F089F939460298FFF747
:1014D00073FF029908440290207A042808D13EA1A3
:1014E00002A801F067F9042102A801F077F907E0EA
:1014F0003BA102A801F05EF9032102A801F06EF9F8
:1015000000208DF80000A17E009861F3410000905A
:10151000E07E08B1012100E00021009861F3820023
:1015200000900098C0F3800058B194F83D100098E6
:1015300061F3C400009094F83C10009861F34510EA
:101540000090206C08B9A06C20B1009820F08000B9
:1015500080300090E06C08B9606D20B1009820F0F8
:101560004000403000909DF8001002A801F036F9CC
:10157000218B02A801F038F902A8D4E90423E1681C
:1015800001F04AF9E07E58B102A8D4E90A23616A61
:1015900001F042F902A8D4E90D23216B01F03CF9D6
:1015A0000098C0F3C01028B102A8D4E91123216C1F
:1015B00001F032F90098C0F3801028B102A8D4E9F4
:1015C0001423E16C01F028F90298A0EB050800BF94
:1015D0004046BDE8FE8300004D5154540000000019
:1015E0004D5149736470000070B504460025207A9F
:1015F000032801D10C2503E0207A042800D10A2514
:10160000D4E90412E06800F031F9801C0544E07E62
:1016100068B1D4E90A12606A00F028F9861CD4E99E
:101620000D12206B00F022F93044801C0544206C20
:1016300008B9A06C30B1D4E91112206C00F016F991
:10164000801C0544E06C08B9606D30B1D4E9141217
:10165000E06C00F00BF9801C0544284670BD70B5A5
:1016600004460D460E222946204600F0D9F870BDEA
:101670002DE9F04F87B005460F4690461C46DDE940
:1016800015B6DDE9109A06950020059004900390A8
:101690000096204612A90EC900F042F8049002906C
:1016A000FFF7A6FEB84203DD6FF00100039033E0C0
:1016B000059820F0F00030300590059868F3C300DD
:1016C0000590059864F342000590059869F30000C1
:1016D00005909DF8141006A801F080F8049906986A
:1016E000FFF76AFE06990844069006A812A90EC9DB
:1016F00001F092F8002C03DD514606A801F074F8C1
:10170000324659460698FEF76DFD0698304406901D
:101710000698401B039000BF039807B0BDE8F08F08
:101720007FB50546089E002401A807C800F09EF872
:10173000801C30440444002D00DDA41C204604B06D
:1017400070BD2DE9FF5F05460E4617469846DDE958
:101750000E9A0395002002900190009000245146BB
:10176000484600F046F883460190FFF741FEB0423C
:1017700002DDA01E009038E000208DF808000298DD
:1017800020F0F00080300290029867F3C3000290CE
:10179000029820F00600801C02909DF8081003A813
:1017A00001F01CF801990398FFF706FE039908441D
:1017B0000390414603A801F017F800240FE004EB62
:1017C00044000AEB800C03A89CE80E0001F024F80A
:1017D000109810F8241003A801F000F8641C4C4580
:1017E000EDDB0398401B009000BF009804B0BDE8FB
:1017F000F09F2DE9F04105460E46022700240AE03D
:1018000004EB440006EB800393E8070000F02EF899
:10181000C01C0744641CAC42F2DB3846BDE8F081D2
:101820002DE9FC4104460D46164600200190471E56
:101830000094022D01DA871E15E000208DF80400C7
:10184000019866F3071001909DF80410684600F0B7
:10185000C5FF00210098FFF7AFFD009908440090F4
:101860000098071B00BF3846BDE8FC8137B500244F
:10187000009820B10098FEF7F7FC044600E0019CB8
:1018800020463EBD00BFFEE77047000070B5002156
:1018900000230F22C4781CB3174C246804F4E064BE
:1018A000C4F5E064C4F30721C1F10404E3B20A41C2
:1018B00044789C40E1B28478144021430C07210E07
:1018C0000E4C05786155047804F01F050124AC40E6
:1018D00005786D11AD0005F1E025C5F8004109E07E
:1018E000047804F01F050124AC40054D06787611FC
:1018F00045F8264070BD00000CED00E000E400E07B
:1019000080E100E002490143024A11607047000093
:101910000000FA050CED00E07047000029B1064A0E
:1019200012680243044B1A6004E0034A12688243BF
:10193000014B1A60704700003038024029B1064A56
:1019400012680243044B1A6004E0034A126882439F
:10195000014B1A60704700004038024029B1064A26
:1019600012680243044B1A6004E0034A126882437F
:10197000014B1A607047000044380240F0B5002166
:1019800000220024022500260223324F3F6807F080
:101990000C0121B1042905D0082937D105E02E4FCB
:1019A000076036E02D4F076033E02A4F3F1F3F6846
:1019B000C7F38056274F3F1F3F6807F03F036EB1C4
:1019C000264FB7FBF3F7DFF88CC0ACF1040CDCF862
:1019D00000C0CCF3881C07FB0CF40CE01E4FB7FBD7
:1019E000F3F7DFF870C0ACF1040CDCF800C0CCF306
:1019F000881C07FB0CF4174F3F1F3F68C7F30147D4
:101A00007F1C7D00B4FBF5F7076002E0124F076012
:101A100000BF00BF0F4F3F6807F0F0010909104FEA
:101A20007A5C0768D74047600A4F3F6807F4E05187
:101A3000890A0B4F7A5C4768D7408760054F3F683B
:101A400007F46041490B064F7A5C4768D740C7608E
:101A5000F0BD0000083802400024F40040787D0109
:101A600014000020704700000CB500200190009089
:101A70004148006840F480303F49086000BF3E485C
:101A8000006800F4003000900198401C019000981C
:101A900018B90198B0F5A04FF1D13748006800F4AB
:101AA000003010B10120009001E00020009000986B
:101AB000012860D130484030006840F080502E4905
:101AC000403108602D48006840F440402B490860D0
:101AD000294808300068284908310860084600682D
:101AE00040F4004008600846006840F4A0500860D8
:101AF0002348091F0860081F006840F08070091F14
:101B0000086000BF1C48006800F000700028F9D091
:101B10001A48006840F480301849086000BF174830
:101B2000406800F480300028F9D01448006840F480
:101B300000301249086000BF1048406800F40030CF
:101B40000028F9D040F205700E4908600A480830B4
:101B5000006820F003000849083108600846006862
:101B600040F00200086000BF03480830006800F041
:101B70000C000828F8D10CBD00380240007000406D
:101B8000195A4007003C024010B500F063F810BD40
:101B900030B515480068154AB0FBF2F1481EB0F1A7
:101BA000807F01D301201BE0481E4FF0E0225061EE
:101BB00050170F22002807DA13071D0E0C4B00F0F8
:101BC0000F04241F1D5503E013071C0E094B1C5462
:101BD00000BF00204FF0E02290610720106100203C
:101BE00008B100BFFEE730BD0000002040420F00FA
:101BF00018ED00E000E400E010B51248006840F085
:101C000001001049086000200E49083108600D48A5
:101C100000680D4908400B4908600C48091D086020
:101C2000081F006820F48020091F08600020054973
:101C30000C310860FFF718FF4FF00060044908609E
:101C400010BD000000380240FFFFF6FE10300024F7
:101C500008ED00E00448006820B103480068401E19
:101C600001490860704700002400002010B540F2D0
:101C700025511B4800F051F8D8B1194800F006F979
:101C8000C4B21848B0F80004C0F30E0040F2FF31AF
:101C900088420EDA1349B1F80014C1F30E00411C5A
:101CA000104AB2F8002461F30E020E49A1F8002494
:101CB0000C5440F224410A4800F02FF801280DD1BD
:101CC0000848B0F8000420F4004000F50040054941
:101CD000A1F80004024800F0D9F8C4B210BD000019
:101CE000004800405400002021B1828942F4005293
:101CF000828104E082894DF6FF731A408281704729
:101D000002460020B1F5007F00D100BF13880B40D0
:101D10000BB1012000E00020704770B5024600249E
:101D200000230025002040F66A16B14200D100BF12
:101D3000C1F3421501F01F03012606FA03F3012D3A
:101D400002D19689334006E0022D02D1168A334033
:101D500001E0968A33400C12012606FA04F4168834
:101D6000344013B10CB1012000E0002070BDF0B58B
:101D70000346002400260025002040F66A17B942D9
:101D800000D100BF1846C1F3421401F01F0601271D
:101D900007FA06F5012C01D10C3004E0022C01D128
:101DA000103000E014301AB107682F43076002E0DA
:101DB0000768AF430760F0BD2DE9FF4705460E46B3
:101DC0000024A14600BFA046B08900B100BF2C8A04
:101DD00024F44054F08804432C82AC8941F20C6016
:101DE0008443B08831890843718908430443AC8136
:101DF000AC8A24F44074B0890443AC826846FFF78F
:101E0000BDFD2048854202D01F48854202D1DDF841
:101E10000C9001E0DDF80890A88900F4004040B182
:101E200009EBC90000EB091031684900B0FBF1F77C
:101E300007E009EBC90000EB091031688900B0FB2D
:101E4000F1F76420B7FBF0F004012009642101FBE5
:101E50001078A88900F4004040B1322000EBC8009F
:101E6000B0FBF1F000F00700044308E0322000EB83
:101E700008106421B0FBF1F000F00F0004432C8146
:101E8000BDE8FF870010014000140140014688882A
:101E9000C0F308007047C1F30802828070470FB496
:101EA00070B586B006460CA8019073E00B980078D8
:101EB0005C281CD10B98401C0B9000786E2809D030
:101EC00072280FD10D213046FFF7E5FF0B98401C1B
:101ED0000B900BE00A213046FFF7DDFF0B98401C0A
:101EE0000B9003E00B98401C0B9000BF4BE00B984D
:101EF0000078252840D10B98401C0B90007864286E
:101F000018D0732833D1019810C801900BE02178C4
:101F10003046FFF7C0FF00BF80213046FFF7F0FEDC
:101F20000028F9D0641C20780028F0D10B98401CC0
:101F30000B9020E0019820C801900A2202A92846AF
:101F400000F06AFA02AC0BE021783046FFF7A3FFFD
:101F500000BF80213046FFF7D3FE0028F9D0641C73
:101F600020780028F0D10B98401C0B9003E00B98D0
:101F7000401C0B9000BF06E00B9810F8011B0B9063
:101F80003046FFF788FF00BF80213046FFF7B8FEDC
:101F90000028F9D00B980078002887D106B070BCD3
:101FA0005DF814FB00BFFEE770B504460D462946F8
:101FB0002046FFF770FF00BF80212046FFF7A0FEFC
:101FC0000028F9D070BD00000FB4054B10B503A96F
:101FD000044A029800F02CF810BC5DF814FB0000D5
:101FE000A5230008480000200FB4084B10B504A931
:101FF00002AA039800F01CF8044602A9002000F091
:10200000B8F9204610BC5DF814FB000073230008EB
:1020100002E008C8121F08C1002AFAD170477047B1
:10202000002001E001C1121F002AFBD1704700000F
:102030002DE9FF4F8BB088460546002606E025288F
:102040000BD0DDE90D1290476D1C761C2878002816
:10205000F5D10FB03046BDE8F08F0024A146A2466E
:102060000122AE4900E0044315F8013F203B02FA8B
:1020700003F00842F7D128782A2810D06FF02F02F9
:102080002878A0F13001092915D809EB890102EB64
:10209000410144F0020400EB01096D1CF0E758F81F
:1020A000041B5FEA010903D544F40054C9F1000997
:1020B00044F002046D1C28782E2817D115F8010F62
:1020C00044F004042A280ED06FF02F022878A0F1E3
:1020D000300109290AD80AEB8A0102EB410100EB21
:1020E000010A6D1CF2E758F804AB6D1C28786C28C7
:1020F0000FD006DC4C2817D068280DD06A2814D1E0
:1021000004E0742810D07A280FD10DE044F40014B4
:102110000AE044F4801401E044F4401469788142F8
:1021200002D104F580146D1C6D1C2878692865D0D7
:1021300006DC00288DD0632827D0642806D15DE016
:102140006E2808D073282AD0752877D0DDE90D12C3
:102150009047761CE0E0C4F30250022809D003281F
:102160000DD0D8F8001004280DD00E6008F1040836
:10217000D2E0D8F80010F217C1E90062F6E7D8F80B
:1021800000100E80F2E70E70F0E718F8041B8DF8CF
:10219000001000208DF80100EB46012003E058F804
:1021A00004BB4FF0FF3061074FF0000701D40AE095
:1021B0007F1C57450DDA8742FADB1BF80710002910
:1021C000F6D106E07F1C8742FCDB1BF807100029D4
:1021D000F8D1DDE90D23A9EB07008146214600F087
:1021E000B1F83044C61904E0DDE90D121BF8010B0B
:1021F00090477F1EF8D22146484688E058F8040BE5
:10220000C4F302514FF00A0B032900D100B2042994
:1022100000D140B2002802DA40422D2102E021051F
:1022200005D52B218DF82410012104E006E0E107FB
:1022300010D02021F6E708AF089113E058F8040BFE
:10224000C4F302514FF00A0B032900D180B20429D4
:1022500000D1C0B20021EEE75946FEF715F8303143
:1022600007F8011D0028F7D1ADEB070000F1200BA6
:10227000600702D524F4803401E04FF0010ADA450A
:1022800002DDAAEB0B0000E00020824600EB0B0110
:1022900008980144A9EB01000A90E00306D4DDE9A7
:1022A0000D2321460A9800F04DF806444FF000092E
:1022B00008E009A911F80900DDE90D12904709F1BC
:1022C0000109761C08998945F3DBE0030CD5DDE9AB
:1022D0000D2321460A9800F035F8064404E0DDE9B4
:1022E0000D1230209047761CBAF10001AAF1010AC4
:1022F000F5DC05E0DDE90D1217F8010B9047761CBF
:10230000BBF10001ABF1010BF4DC0A982146DDE9D9
:102310000D2300F005F806446D1C97E6092801001E
:102320002DE9F041044600251E461746880404D4D2
:1023300005E039462020B0476D1C641EF9D52846BB
:10234000BDE8F0812DE9F041044600251E46904687
:10235000C80301D5302700E02027880404D505E014
:1023600041463846B0476D1C641EF9D52846BDE885
:10237000F0810A68531C0B601070704710B502465C
:10238000002309E0064800680078107004480068DF
:10239000401C034C20605B1C8B42F3DB084610BDE5
:1023A0002800002070B504460D46E1B20548FFF74D
:1023B00072FD00BF80210348FFF7A2FC0028F9D07E
:1023C000204670BD0010014010B5002821D0114BEF
:1023D0000022001F196803E0814203D80A464968B9
:1023E0000029F9D152B11368841A9C4204D10068C3
:1023F00018441060104602E0506000E0186039B1E7
:1024000002680B1A934203D10B681A4402604968B0
:10241000416010BD4C000020F0B503460D46164645
:10242000002729460A2E03D0002008702846F0BD58
:1024300033B9302001F8010B002008702846F6E778
:10244000002B03DA2D2001F8010B5B4242F21072DF
:102450000DE093FBF2F404B937B104F1300001F858
:10246000010B04FB123301270A2092FBF0F2002A31
:10247000EFDC002008702846D9E7000010B5FDF712
:1024800049FFFFF785FBFEF763F8FEF751FEFEF705
:1024900021FEFDF723FF03A0FFF796FDFEF7EAF804
:1024A000002010BD0D0A2A2A2AD2B0BBF0463432D1
:1024B00039CCF4D5BDD5DF415050BFD8D6C6BFAA60
:1024C000B7A2B0E5CAB5D1E92A2A2A0D0A00000050
:1024D000F0B50B30154D20F007010024144A0FE031
:1024E00003688B420BD38B4205D95E1A43184768A9
:1024F000C3E9006700E04368136002C004E0021D06
:1025000010680028ECD12046002802D1286808B1C4
:102510000020F0BD064A07481060074A121A22F050
:102520000702C0E9002401202860D7E750000020FE
:102530004C0000205C0400205806002001460A6878
:1025400010780A68521C0A60704730B501460A6864
:10255000537814784FF4807515FB04300B689B1C7E
:102560000B6030BDF0B505460C46164600272068C6
:10257000301A01280FDD2046FFF7E7FF686020686A
:1025800069680844B04206D82168A9602068696873
:10259000084420600127002028603846F0BD000074
:1025A00070B505460C462146284600F0F5F806466B
:1025B00003480068204402490860204670BD0000BE
:1025C00030000020F0B58FB006460F4615461520A6
:1025D000434908601A208DF8380000208DF8390032
:1025E00040F6C4133FA240A142A0FDF70FFF0446EE
:1025F000214644A0FFF7E8FC0CB340F6C41339A20F
:1026000045A146A0FDF702FF04461CB946480068F4
:102610000FB0F0BDE9B23846FFF7C6FC4348FDF7FE
:10262000C5FE40F6C41342A242A10EA8FDF7EEFE7D
:10263000044614B941480068EAE70120E8E740F69B
:10264000C41328A234A135A0FDF7E0FE044614B956
:102650003B480068DCE740F6C4133AA224A13AA044
:10266000FDF7D4FE044614B93B480068D0E7382192
:102670006846FDF7D0FD39A16846FDF7FCFD3146FF
:102680006846FDF7D3FD40F6C41329A216A168469B
:10269000FDF7BCFE044614B935480068B8E740F6BB
:1026A000C41310A21CA11DA0FDF7B0FE044614B96E
:1026B0001D480068ACE7E9B23846FFF775FC1B48D7
:1026C000FDF774FE40F6C41319A21AA10EA8FDF777
:1026D0009DFE044614B91948006899E7012097E760
:1026E0003000002033000000434F4E4E454354203D
:1026F0004F4B000041542B434950535441545553C0
:102700000000000077696669C1ACBDD3D7B4CCAC1A
:102710002025640D0A0000003E00000041542B43B8
:10272000495053454E4400003800002080841E006C
:102730003400000053454E44204F4B00340000202D
:102740003C0000203200000041542B4347414354D9
:102750003D312C31000000004000002041542B434B
:10276000495053544152543D22544350222C0000AE
:102770004400002010B5002400BF20210548FFF7C9
:10278000BFFA0128F9D10348FFF780FBC4B2204605
:1027900010BD00000010014070B506460C46002533
:1027A00000BF03E0FFF7E6FF70556D1CA542F9DBA3
:1027B000204670BD70B504460E463046FDF754FD08
:1027C00005462946204600F00FF82A463146206883
:1027D000FDF708FD20682844206070BD0268117074
:1027E0000268521C0260704710B50A46CB1701EB15
:1027F00013631B0A046823700268521C02600A46B5
:10280000CB1701EB13631B12A1EB032304682370A6
:102810000268521C026010BD1FB5044602980028D1
:102820000DDD20460299FFF7DFFFDDE90221206878
:10283000FDF7D8FC20680299084420600AE001985E
:1028400020B120460199FFF7B5FF03E000212046A3
:10285000FFF7CAFF1FBD00004D51544300000000A8
:102860000400000000000000000000000000000064
:102870003C0001004D5154570000000000000000D2
:102880000000000000000000000000000000000048
:102890000000000000000000000000000000000038
:1028A0000000000000000000000000000000000028
:1028B000D02800080000002054000000102000086C
:1028C0002429000854000020040A000020200008E9
:1028D0000095BA0A00000000000000000102030495
:1028E00006070809000000000102030401020304B6
:1028F000060708090000000000000000FFFFFFFFBE
:1029000000000000FFFFFFFFFEFFFFFFFDFFFFFFD6
:10291000FCFFFFFFFBFFFFFF0000000000000000C6
:0429200000000000B3
:04000005080001AD41
:00000001FF
