:020000040800F2
:1000000028070020C1010008C9010008CB01000831
:10001000CD010008CF010008D10100080000000058
:10002000000000000000000000000000D3010008F4
:10003000D501000800000000D7010008D901000820
:10004000DB010008DB010008DB010008DB01000820
:10005000DB010008DB010008DB010008DB01000810
:10006000DB010008DB010008DB010008DB01000800
:10007000DB010008DB010008DB010008DB010008F0
:10008000DB010008DB010008DB010008DB010008E0
:10009000DB010008DB010008DB010008DB010008D0
:1000A000DB010008DB010008DB010008DB010008C0
:1000B000DB010008DB010008DB010008DB010008B0
:1000C000DB010008DB010008DB010008DB010008A0
:1000D000DB010008DB010008DB010008DB01000890
:1000E000DB010008DB010008DB010008DB01000880
:1000F000DB010008DB010008DB010008DB01000870
:10010000DB010008DB010008DB010008DB0100085F
:10011000DB010008DB010008DB010008DB0100084F
:10012000DB010008DB010008DB010008DB0100083F
:10013000DB010008DB010008DB010008DB0100082F
:10014000DB010008DB010008DB010008DB0100081F
:10015000DB010008DB010008DB010008DB0100080F
:10016000DB010008DB010008DB010008DB010008FF
:10017000DB010008DB010008DB010008DB010008EF
:10018000DB010008DB010008DB010008DB010008DF
:10019000DB010008DB010008DB010008DB010008CF
:1001A000DB010008DB010008DB010008DFF80CD0F0
:1001B00000F080F8004800470110000828070020E0
:1001C0000648804706480047FEE7FEE7FEE7FEE7F1
:1001D000FEE7FEE7FEE7FEE7FEE7FEE71D08000894
:1001E000AD010008D2B201E000F8012B491EFBD29C
:1001F00070470022F6E710B513460A460446194632
:10020000FFF7F0FF204610BD421E12F8013F002B01
:10021000FBD111F8013B02F8013B002BF9D17047EB
:1002200030B505462A460B4612F8010B13F8014B70
:1002300008B1A042F8D01CB1002802D06D1CF1E733
:10024000284630BD421C10F8011B0029FBD1801A42
:1002500070472DE9F05F0546002092469B46884690
:100260000646814640241BE0284641464746224632
:1002700000F041F853465A46C01A914110D3114636
:100280001846224600F028F82D1A67EB01084F4661
:1002900022460120002100F01FF817EB00094E4113
:1002A000201EA4F10104DFDC484631462A464346BD
:1002B000BDE8F09F064C074D06E0E06840F0010302
:1002C00094E8070098471034AC42F6D3FFF772FF6A
:1002D0007812000898120008202A04DB203A00FA5D
:1002E00002F1002070479140C2F1200320FA03F38D
:1002F000194390407047202A04DB203A21FA02F08B
:100300000021704721FA02F3D040C2F1200291404F
:1003100008431946704770B504460D46164606B99F
:1003200070BD206E08B9606E10B101206066F7E7FD
:100330001DE02878E26D511CE16504F11C01885430
:1003400060690830606160696061606940B9A06996
:10035000401CA061A069A061A06908B90120606685
:10036000E06D402802D1204600F064F86D1C30009A
:10037000A6F1010602D0606E0028DAD000BFCFE7F8
:1003800010B50446E06D372820DD8021E26D501C59
:10039000E06504F11C00815406E00021E26D501C70
:1003A000E06504F11C008154E06D4028F5DB204637
:1003B00000F040F806E00021E26D501CE06504F119
:1003C0001C008154E06D3828F5DB11E08021E26DDE
:1003D000501CE06504F11C00815406E00021E26D30
:1003E000501CE06504F11C008154E06D3828F5DBF9
:1003F000A069000E84F85400A069010C84F855101F
:10040000208B010A84F85610217E84F85710606909
:10041000000E84F858006069010C84F85910A08A15
:10042000010A84F85A10217D84F85B10204600F000
:1004300001F810BD2DE9F047D4B00146DFF864A201
:10044000DAE900C8DAE9029ACDF840C151A8A0E87B
:100450000007002032E001F11C0C1CF820C04FEA1C
:100460000C6C4DF820C05DF820804FF0010C0CEBB7
:10047000800901F11C0C1CF809C048EA0C4C4DF82D
:1004800020C05DF820804FF0020C0CEB800901F1D8
:100490001C0C1CF809C048EA0C2C4DF820C05DF873
:1004A00020C04FF0030808EB800901F11C0818F880
:1004B00009804CEA080C4DF820C0401C1028CADB0B
:1004C000102034E0A0F1030C5DF82CC0A0F1080866
:1004D0005DF828808CEA080CA0F10E085DF82880F1
:1004E0008CEA080CA0F110085DF828808CEA080C52
:1004F0004FF0FF3808EA4C08A0F1030C5DF82CC05F
:10050000A0F108095DF829908CEA090CA0F10E0908
:100510005DF829908CEA090CA0F110095DF829908A
:100520008CEA090C48EADC7C4DF820C0401C5028BD
:10053000C8DB0B684A688C68CD680F69002020E032
:100540004FF0FF3C0CEA431C4CEAD36902EA040C6E
:1005500025EA02084CEA080CCC44BC445DF8208033
:10056000C444DDF840810CEB080600BF2F46254649
:100570004FF0FF3C0CEA827C4CEA92041A46334668
:10058000401C1428DCDB14201EE04FF0FF3C0CEA7A
:10059000431C4CEAD36882EA040C8CEA050CC44480
:1005A000BC445DF82080C444DDF844810CEB0806AF
:1005B00000BF2F4625464FF0FF3C0CEA827C4CEAF8
:1005C00092041A463346401C2828DEDB282024E00B
:1005D0004FF0FF3C0CEA431C4CEAD36802EA040CDF
:1005E00002EA05094CEA090C04EA05094CEA090C7F
:1005F000C444BC445DF82080C444DDF848810CEB61
:10060000080600BF2F4625464FF0FF3C0CEA827CCF
:100610004CEA92041A463346401C3C28D8DB3C2066
:100620001EE04FF0FF3C0CEA431C4CEAD36882EA20
:10063000040C8CEA050CC444BC445DF82080C4441E
:10064000DDF84C810CEB080600BF2F4625464FF025
:10065000FF3C0CEA827C4CEA92041A463346401C6A
:100660005028DEDBD1F800C09C44C1F800C0D1F8AE
:1006700004C09444C1F804C0D1F808C0A444C1F82F
:1006800008C0D1F80CC0AC44C1F80CC0D1F810C0FF
:10069000BC44C1F810C04FF0000CC1F85CC054B0AD
:1006A000BDE8F08744120008002141618161C16505
:1006B00007490160074941600549C943816005490F
:1006C000C943C16004490161002101664166704768
:1006D0000123456789ABCDEFF0E1D2C310B50446E5
:1006E000606E08B1002010BD206E20B92046FFF7D3
:1006F00047FE012020660120F5E700000CB5002030
:10070000019000904148006840F480303F49086003
:1007100000BF3E48006800F4003000900198401C83
:100720000190009818B90198B0F5A04FF1D1374861
:10073000006800F4003010B10120009001E00020BA
:1007400000900098012860D130484030006840F0A7
:1007500080502E49403108602D48006840F44040E8
:100760002B4908602948083000682849083108608A
:100770000846006840F4004008600846006840F4FD
:10078000A05008602348091F0860081F006840F057
:100790008070091F086000BF1C48006800F00070EE
:1007A0000028F9D01A48006840F4803018490860E1
:1007B00000BF1748406800F480300028F9D0144882
:1007C000006840F400301249086000BF10484068DB
:1007D00000F400300028F9D040F205700E4908609E
:1007E0000A480830006820F0030008490831086012
:1007F0000846006840F00200086000BF0348083067
:10080000006800F00C000828F8D10CBD0038024048
:1008100000700040195A4007003C024010B51248D1
:10082000006840F001001049086000200E490831BE
:1008300008600D4800680D4908400B4908600C48E5
:10084000091D0860081F006820F48020091F086047
:10085000002005490C310860FFF750FF4FF00060A1
:100860000449086010BD000000380240FFFFF6FE9A
:100870001030002408ED00E00FB4054B10B503A9BB
:10088000044A029800F02CF810BC5DF814FB00003C
:10089000690F0008000000200FB4084B10B504A930
:1008A00002AA039800F01CF8044602A9002000F0F8
:1008B00048FA204610BC5DF814FB0000430D000808
:1008C00002E008C8121F08C1002AFAD17047704719
:1008D000002001E001C1121F002AFBD17047000077
:1008E0002DE9FF4F8DB00F460546002606E025286E
:1008F0000BD0DDE90F1290476D1C761C287800287C
:10090000F5D111B03046BDE8F08F0024A246A146D3
:100910000122EC4900E0044315F8013F203B02FAB4
:1009200003F00842F7D128782A2810D06FF02F0260
:100930002878A0F13001092914D80AEB8A0102EBCA
:10094000410144F0020400EB010A6D1CF0E701CF05
:100950005FEA000A03D544F40054CAF1000A44F0E7
:1009600002046D1C28782E2817D115F8010F44F0C9
:1009700004042A280ED06FF02F022878A0F130014D
:1009800009290AD809EB890102EB410100EB0109B1
:100990006D1CF2E757F8049B6D1C28786C280FD06B
:1009A00006DC4C2817D068280DD06A2814D104E042
:1009B000742810D07A280FD10DE044F400140AE016
:1009C00044F4801401E044F440146978814202D177
:1009D00004F580146D1C6D1C2A786E2A1FD00CDC67
:1009E000632A31D004DC002A8BD0582A11D1A3E02D
:1009F000642A68D0692A0CD165E0732A2ED004DC01
:100A00006F2A73D0702A04D19BE0752A6FD0782AA0
:100A10006ED01046DDE90F129047761C50E1C4F30A
:100A20000250022806D0032809D0042801CF09D09B
:100A3000066045E101CFF117C0E9006140E101CF57
:100A400006803DE106703BE117F8040B8DF80000CD
:100A500000208DF80100EB46012003E057F804BBAD
:100A60004FF0FF3061074FF0000102D40DE008F1B4
:100A70000101884649450FDA8045F8DB1BF808106C
:100A80000029F4D108E008F1010188468142FADB2F
:100A90001BF808100029F6D1DDE90F23AAEB0800A6
:100AA0008146214600F036F9304400EB080604E0A8
:100AB000DDE90F121BF8010B9047B8F10108F7D2DE
:100AC00021464846F7E00A21C4F302534FF0000BD9
:100AD0000891022B04D001CFC117032B09D00AE0E3
:100AE000FF1D27F00707F7E8020108E032E01FE0EA
:100AF00020E000B2C117042B01D140B2C117031E80
:100B000071F1000307DA4FF0000CD0EB0C006CEB36
:100B100001012D2302E0230504D52B238DF8243079
:100B2000012303E0E30701D02023F7E7984658E0CC
:100B30000A2110E010210EE010204FF0000B089069
:100B40000CE010214FF0000B44F004044FF00809B2
:100B5000089103E008214FF0000B0891C4F3025301
:100B6000022B04D001CF0021032B06D006E0FF1D8D
:100B700027F00707F7E8020103E080B2042B00D159
:100B8000C0B24FF0000823072BD5702A07D0DDF83C
:100B900020C08CF0100C5CEA0B0C05D00EE040235A
:100BA0008DF82430012308E050EA010306D03023F9
:100BB0008DF824308DF8252002239846DDF820C0DA
:100BC0008CF0080C5CEA0B0C0BD150EA010301D14C
:100BD000630706D530238DF824304FF00108A9F1C2
:100BE0000109582A04D038A20B9208AA0A920BE0F5
:100BF0003AA2F9E75B46089AFFF72BFB0B9B9B5C3D
:100C00000A9A521E0A92137050EA0102F2D10A980F
:100C1000ADEB000000F1200B600702D524F4803416
:100C200001E04FF00109D94502DDA9EB0B0000E01E
:100C3000002000EB0B0141440890AAEB010AE003FD
:100C400006D4DDE90F232146504600F063F8064440
:100C50004FF0000908E009A911F80900DDE90F12B9
:100C6000904709F10109761CC145F4DBE0030CD57E
:100C7000DDE90F232146504600F04CF8064404E01D
:100C8000DDE90F1230209047761C0899481E089025
:100C90000029F5DC08E00A980A990078491C0A91B5
:100CA000DDE90F129047761CBBF10001ABF1010B9F
:100CB000F1DC21465046DDE90F2300F019F8064427
:100CC0006D1C1BE6092801003031323334353637CC
:100CD0003839616263646566000000003031323388
:100CE0003435363738394142434445460000000028
:100CF0002DE9F041044600251E461746880404D419
:100D000005E039462020B0476D1C641EF9D5284601
:100D1000BDE8F0812DE9F041044600251E469046CD
:100D2000C80301D5302700E02027880404D505E05A
:100D300041463846B0476D1C641EF9D52846BDE8CB
:100D4000F0810A68531C0B60107070472DE9F8435E
:100D50000025002400272948FFF774FA0321B0FB7F
:100D6000F1F201FB12064FF000084FF480712448A5
:100D7000FFF73FFADFF8888036E0002600270020E2
:100D800000900CE01D48FFF75DFAA84200D808E08B
:100D90001A48405D67F31F2007466D1C761C032E22
:100DA000F0DB00BFC6F10300C0008740002419E05B
:100DB000A64203DA40200DF804000AE0C4F1030063
:100DC00000EB4000400047FA00F000F03F000DF853
:100DD00004001DF804000B49085C88F8000008F1C5
:100DE0000108641C042CE3DB0448FFF72BFAA8423B
:100DF000C3D8002088F80000BDE8F8830400002074
:100E000024020020001200082DE9F04119A5002459
:100E10000026224922A0FFF72FFD00F051F810B95B
:100E20000020BDE8F08129462448FFF7EDF900F0E5
:100E300017F908B90020F4E72048FFF703FA06463F
:100E40004FF408711548FFF7D4F900240BE0022293
:100E500021461A4800F091F8274604EBD771491053
:100E60000E4A5054A41CB442F1DBFFF76FFF01207F
:100E7000D7E7000032353845414641352D453931F7
:100E8000342D343744412D393543412D43354142CA
:100E90003044433835423131000000000400002066
:100EA0000A636C69656E7420726571756573742070
:100EB0006865616465723A0A25730A00240200209D
:100EC00070B517A6002500244FF480711948FFF76C
:100ED00090F931461848FFF7A3F9054635B926229F
:100EE000164917A0FFF7C8FC002070BD3046FFF779
:100EF000A9F9054400240AE0285D0A2802D0285DEB
:100F00000D2800D108E0285D0A490855641C0A48EC
:100F1000FFF798F9A042EFD800BF0120E5E70000F5
:100F20005365632D576562536F636B65742D4B6515
:100F3000793A200024020020040000205E120008FC
:100F400025732D25643A67657420776562736F6336
:100F50006B657420636C69656E74206B65792065C0
:100F600072726F722E0A000038B504468DF80000C8
:100F700069460320ABBE204638BDF0B503460E4699
:100F8000174600251878302807D15878782802D0DD
:100F90005878582801D1022200E00022324400246F
:100FA00018E0BC4200DB27E0985C00F01FF939280C
:100FB00007DD985C00F01AF95738102105FB010590
:100FC00006E0985C00F012F93038102105FB0105AD
:100FD000641C521C985C302802DB985C3928E0DDE8
:100FE000985C612802DB985C6628DADD985C412811
:100FF00002DB985C4628D4DD00BF2846F0BD000027
:10100000002412E04FF408710848FFF7F2F808A036
:10101000FFF732FC2CB9FFF7F7FE00F079F8012456
:1010200003E009A000F018F800BFEBE7040000207F
:101030002D2D2D2D2D2D2D2D2D2D2D2D2D2D2D2DE0
:101040002D2D2D2D2D0A0000313233343536373811
:101050006162636465666A000146012070470000B2
:1010600010B59EB0682104A8FFF7C3F804A8FFF7E5
:101070001BFB1448FFF7E6F804462246114904A872
:10108000FFF749F904A8FFF729FB38B9D5220E4923
:101090000EA0FFF7F1FB00201EB010BD4FF48071D1
:1010A0000848FFF7A6F8DDE906120898CDE9001216
:1010B000029011A10348DDE90423FFF7EDFB0120B5
:1010C000EAE70000240200205412000825732D25B1
:1010D000643A436F756C64206E6F7420636F6D703B
:1010E000757465206D6573736167652064696765F4
:1010F00073742E0A00000000253038582530385807
:101100002530385825303858253038580000000030
:1011100010B54FF408710E48FFF76BF80DA10C489D
:10112000FFF7BAFB0A4A14A11046FFF7B5FB084ABD
:1011300017A11046FFF7B0FB1B4B054A1BA1104639
:10114000FFF7AAFB024921A0FFF796FB002010BD84
:1011500004000020485454502F312E3120313031BA
:1011600020537769746368696E672050726F746F7B
:10117000636F6C730D0A00002573557067726164AC
:10118000653A20776562736F636B65740D0A0000C2
:101190002573436F6E6E656374696F6E3A20557088
:1011A00067726164650D0A0024020020257353658F
:1011B000632D576562536F636B65742D416363657F
:1011C00070743A2025730D0A0D0A00000A736572C7
:1011D00076657220726573706F6E736520686561E5
:1011E0006465723A0A25730A00000000014641292D
:1011F00004DB5A2902DC01F1200070470846FCE7B5
:101200004142434445464748494A4B4C4D4E4F5056
:101210005152535455565758595A61626364656622
:101220006768696A6B6C6D6E6F70717273747576D6
:101230007778797A303132333435363738392B2F65
:101240003D0000009979825AA1EBD96EDCBC1B8F5E
:10125000D6C162CA736861315F6861736800666590
:101260007463685F7365635F6B657900616E616C61
:10127000795F64617461000098120008000000202A
:1012800004000000C00800089C12000804000020B0
:0C12900024070000D00800080000000047
:04000005080001AD41
:00000001FF
