:020000040800F2
:10000000580C0020C1010008D5110008211000087B
:10001000D111000819080008F118000800000000BC
:10002000000000000000000000000000B113000804
:10003000C10800080000000065120008D51400087F
:10004000DB010008DB010008DB010008DB01000820
:10005000DB010008DB010008DB010008DB01000810
:10006000DB010008DB010008DB010008DB01000800
:10007000DB010008DB010008DB010008DB010008F0
:10008000DB010008DB010008DB010008DB010008E0
:10009000DB010008DB010008DB010008DB010008D0
:1000A000DB010008DB010008DB010008DB010008C0
:1000B000DB010008DB010008DB010008DB010008B0
:1000C000DB010008DB010008DB010008DB010008A0
:1000D000DB010008DB010008DB010008B91500089E
:1000E000DB010008DB010008DB010008DB01000880
:1000F000DB010008DB010008DB010008DB01000870
:10010000DB010008DB010008DB010008DB0100085F
:10011000DB010008DB010008DB010008DB0100084F
:10012000DB010008DB010008DB010008DB0100083F
:10013000DB010008DB010008DB010008DB0100082F
:10014000DB010008DB010008DB010008DB0100081F
:10015000DB010008DB010008DB010008DB0100080F
:10016000DB010008DB010008DB010008DB010008FF
:10017000DB010008DB010008DB010008DB010008EF
:10018000DB010008DB010008DB010008DB010008DF
:10019000DB010008DB010008DB010008DB010008CF
:1001A000DB010008DB010008DB010008DFF80CD0F0
:1001B00000F042FA0048004711230008580C0020C4
:1001C0000648804706480047FEE7FEE7FEE7FEE7F1
:1001D000FEE7FEE7FEE7FEE7FEE7FEE7451500085F
:1001E000AD010008D2B201E000F8012B491EFBD29C
:1001F00070470022F6E710B513460A460446194632
:10020000FFF7F0FF204610BD30B505462A460B46E5
:1002100012F8010B13F8014B08B1A042F8D01CB141
:10022000002802D06D1CF1E7284630BD421C10F8B2
:10023000011B0029FBD1801A704730B50B460146DF
:1002400000202022012409E021FA02F59D4205D375
:1002500003FA02F5491B04FA02F52844151EA2F11F
:100260000102F1DC30BD2DE9F05F05460020924629
:100270009B4688460646814640241BE02846414668
:100280004746224600F0F9F953465A46C01A9141B2
:1002900010D311461846224600F0E0F92D1A67EBFC
:1002A00001084F4622460120002100F0D7F917EB44
:1002B00000094E41201EA4F10104DFDC484631460E
:1002C0002A464346BDE8F09F2DE9FE4F804681EA6D
:1002D0000300C00F0C46009021F0004123F00045C0
:1002E000B8EB0200A94105D24046214690461C4683
:1002F0000B46024623F00040104347D0270DC7F3BA
:100300000A00C3F30A510290401A019040286BDAA8
:10031000C3F3130040F4801B0098924620B10023E1
:10032000D2EB030A63EB0B0B01985946C0F1400274
:10033000504600F093F906460D4650465946019A3C
:1003400000F0ABF910EB08006141002487EA11527C
:1003500084EAE7731A4340D0009A62B3019A012AF3
:100360004FEA075215DC001B61EB02014FF000421F
:1003700002EA0752CDE90042001C41F580113246E5
:100380002B4600F0ABF903B0BDE8F08F40462146A4
:10039000F9E7001B61EB0201001C41F58013001816
:1003A0005B412018A2F5001747EB030140EAD57026
:1003B000B6196D4111E06D084FEA360645EAC07581
:1003C0004FEA0752001B61EB0201001C41F580114E
:1003D00049084FEA30000019514132462B4603B01C
:1003E000BDE8F04F00F06BB90098012240000023F7
:1003F000D0EB020263EBE073009821464FEAE07411
:10040000B8EB000061EB0401E9E783F000435BE730
:1004100081F0004158E72DE9FE4F81EA030404F022
:10042000004421F0004100944FF0000B23F0004302
:1004300050EA01045ED052EA03045BD0C3F30A54CD
:10044000C1F30A552C44A4F2F3340194A0FB0254E6
:10045000C1F3130141F48011C3F3130343F4801378
:1004600001FB024400FB034E840A970A44EA8154CC
:1004700047EA8357A4FB076802958D0A05FB0785A9
:100480004FEA932C04FB0C542705029D4FEA0658B3
:1004900047EA1637B5EB08056EEB070C870E920E90
:1004A00047EA811742EA8312A7FB0201B6EB0B0170
:1004B00064EB00042B0D43EA0C335E1844EB1C5034
:1004C000DA465146E7FB0201C5F313044FEA0B334A
:1004D00043EA14534FEA0432019C43EA0603A4F1B1
:1004E0000C040294009CCDE900B400F0F7F803B0CE
:1004F000BDE8F08F00200146F9E72DE9F04D81EAD3
:10050000030404F0004B21F0004514464FF0000AAC
:1005100023F0004150EA050220D054EA01021DD028
:10052000C5F30A570246C5F31303C1F31300C1F321
:100530000A5640F4801543F48013A7EB0608101BFD
:10054000D64608F2FD3873EB050002D308F1010826
:1005500001E092185B41B8F1000F03DA0020014678
:10056000BDE8F08D00204FF48011064684460EE071
:10057000171B73EB050705D3121B63EB050306433B
:100580004CEA010C49084FEA300092185B4150EAEE
:100590000107EDD152EA030012D082EA040083EA97
:1005A0000501084305D0101BAB4106D201220023F0
:1005B00006E000224FF0004302E06FF0010253100A
:1005C0001AEB06004CEB085110EB0A0041EB0B0153
:1005D000BDE8F04D00F073B8C1F30A52C1F3130146
:1005E00040F2FF3341F480119A4202DA00200146C2
:1005F000704740F233439A42A2F2334202DC524245
:1006000000F03BB800F02AB830B5041E71F10004C8
:1006100004DB4FF00044404264EB0101141E73F10F
:10062000000405DB1C464FF00043524263EB040319
:10063000994208BF904230BD064C074D06E0E06885
:1006400040F0010394E8070098471034AC42F6D319
:10065000FFF7B0FD90240008B0240008202A04DB36
:10066000203A00FA02F1002070479140C2F12003C5
:1006700020FA03F3194390407047202A04DB203A04
:1006800021FA02F00021704721FA02F3D040C2F1B2
:1006900020029140084319467047202A06DBCB17F9
:1006A000203A41FA02F043EAE07306E041FA02F32D
:1006B000D040C2F12002914008431946704710B55E
:1006C000141E73F1000408DA401C41F10001921875
:1006D0005B411A4301D120F0010010BD2DE9F04D1E
:1006E00092469B4611B1B1FA81F202E0B0FA80F273
:1006F00020329046FFF7B2FF04460F4640EA0A0058
:1007000041EA0B0153465A46084313D0114653EAB7
:10071000010019D0C8F140025046FFF7AEFF054670
:100720000E46504659464246FFF798FF084305D00B
:10073000012004E020463946BDE8F08D0020054345
:1007400046EAE0762C4337430A986305E40AA0EBB7
:1007500008000022FD0A44EA47540A3002D500206E
:100760000146E9E7010510196941DDE9084500196D
:100770006941BDE8F04DA2E770B58D1810F8014B46
:1007800014F0030201D110F8012B231106D110F847
:10079000013B03E010F8016B01F8016B521EF9D127
:1007A000ABB110F8012B04F00C048A1A0C2C03D006
:1007B000A2EB84129B1C08E010F8014BA2EB042270
:1007C000F8E712F8014B01F8014B5B1EF9D5A9427D
:1007D000D4D3002070BD00001CB50121080200F038
:1007E00043FD4FF40060009001208DF804000020CC
:1007F0008DF8060002208DF807008DF80500694687
:10080000044800F09BFB4FF40061024800F001FC3B
:100810001CBD00000020024000BFFEE71CB5012106
:10082000102000F021FD0420009001208DF804002C
:1008300000208DF8060001208DF8070002208DF8B9
:1008400005006946014800F079FB1CBD001002401C
:100850002DE9FC4705460E4690461C464FF0000920
:10086000002725B11EB1B8F1000F00D01CB94FF020
:10087000FF30BDE8FC87802001F078FD07463FB1DE
:100880002B460D4A80213846CDE9006801F042F838
:100890002CB13A4609A1204601F050F802E06FF071
:1008A0000100E6E73846FFF7C1FC8146384601F013
:1008B000D5FC4846DDE70000D0000020257300008D
:1008C0007047000000B587B00121084600F0CCFC5D
:1008D0000121102000F0E8FC07220A211D4800F049
:1008E00075FB072209211B4800F070FB00208DF8E2
:1008F0001A0001208DF81B0002208DF8180000025C
:10090000059002208DF8190005A9124800F016FB89
:1009100002208DF818004002059005A90D4800F04E
:100920000DFB4FF4E13001900020ADF80800ADF868
:100930000A00ADF80C00ADF810000C20ADF80E0068
:1009400001A9054800F0DEFE0121034800F072FE17
:1009500007B000BD000002400010014001B504498D
:100960000098086000BF024800680028FBD108BD5D
:100970002400002010B5002408210C4800F04BFB97
:100980000B48FFF7EBFF0CE04FF4FA73002209A1CC
:1009900009A000F013F800B110BD00F07FF9601C51
:1009A000C4B20A2CF0DB00BFF6E70000000C0240E6
:1009B00040420F004F4B0000415400002DE9F04130
:1009C00006460C4615461F462748B0F800046FF34C
:1009D0000E002549A1F80004324624A1254800F064
:1009E00004FF1CB915B90120BDE8F0814FF47A71FC
:1009F00007FB01F0FFF7B2FF00201B49B1F800141C
:100A0000C1F30E01184A505411461BA000F072FFAA
:100A1000B4B1ADB121461448FFF7F6FB08B101208F
:100A200000E0002040B929460F48FFF7EDFB08B170
:100A3000012000E0002008B10120D5E70020D3E725
:100A400044B121460848FFF7DFFB08B10120CBE79E
:100A50000020C9E729460448FFF7D6FB08B101206A
:100A6000C2E70020C0E700005402002025730D0AF1
:100A700000000000004800402573000010B586B05B
:100A800004460CB1012000E00020024606A101A8A6
:100A900000F054FF4FF4FA73002207A101A8FFF7FA
:100AA0008DFF06B010BD000041542B4349504D55F9
:100AB000583D2564000000004F4B00001CB501218B
:100AC000084600F0D1FB0820009001208DF80400BA
:100AD0008DF8070002208DF805006946064800F0F1
:100AE0002DFA0121082000F0BFFB08200090694684
:100AF000024800F023FA1CBD00000240000C024036
:100B000010B5FFF7DBFF00F081F90821034800F082
:100B100082FA0821024800F07CFA10BD000C024065
:100B20000000024030B59FB004460D462B462246D9
:100B300006A101A800F002FF41F28833002208A1BB
:100B400001A8FFF73BFF1FB030BD000041542B430D
:100B5000574A41503D222573222C22257322000042
:100B60004F4B0000F0B5B9B006460F4614461D467F
:100B7000642120A8FFF73DFB16B1012E10D107E03C
:100B80003B4614A214A120A8009400F0D7FE08E070
:100B90003B4615A210A120A8009400F0CFFE00E073
:100BA00000BF00BF052D06DA20AB2A460FA102A820
:100BB00000F0C4FE04E020AA11A102A800F0BEFECD
:100BC0004FF47A6312A216A102A8FFF7F7FE39B01C
:100BD000F0BD000054435000222573222C222573BF
:100BE000222C2573000000005544500041542B4333
:100BF000495053544152543D25642C257300000044
:100C000041542B43495053544152543D25730000E5
:100C1000414C5245415920434F4E4E4543540000EC
:100C20004F4B000010B5044624B1012C0AD0022C11
:100C300018D10FE040F6C4130BA20EA10EA0FFF7CF
:100C4000BDFE10BD40F6C41307A20AA10DA0FFF718
:100C5000B5FEF6E740F6C41303A206A10CA0FFF709
:100C6000ADFEEEE70020ECE76E6F206368616E6713
:100C7000650000004F4B000041542B43574D4F443B
:100C8000453D310041542B43574D4F44453D3200C3
:100C900041542B43574D4F44453D330010B5082177
:100CA000054800F0B6F90548FFF758FE082102484C
:100CB00000F0B1F910BD0000000C024020A10700B7
:100CC0002DE9F04186B007460C4615461E464FF00A
:100CD00000083FB1224613A1134800F086FD4FF0F3
:100CE00001081BE0052E06DAAB1C32460FA101A855
:100CF00000F024FE04E0AA1C11A101A800F01EFED1
:100D00006423002212A101A8FFF758FE4FF4FA73E2
:100D1000002210A12046FFF751FE8046404606B053
:100D2000BDE8F081257300000048004041542B438A
:100D3000495053454E443D25642C25640000000075
:100D400041542B43495053454E443D256400000017
:100D50003E20000053454E44204F4B002DE9FC41FE
:100D600000240025402001F001FB04460CB9BDE839
:100D7000FC81802001F0FAFA054605B9F7E720E08A
:100D80002046FFF753FA074639462046FFF731FA67
:100D90000CA011A313A240F25B71CDE9000416A0D0
:100DA00000F07CF906462946204600F036F9052376
:100DB000002221460120FFF783FF1348FFF7CEFDF5
:100DC00000BFDDE73131342E303932352C32323547
:100DD0002E3333363900000031323334353637386C
:100DE00039313000323031372F30382F3135203122
:100DF000323A32300000000034372E39382E31318B
:100E0000392E313233000000404B4C0000B587B022
:100E10000121022000F028FA0121880400F034FAB0
:100E200007220B21264800F0D1F807220A21244886
:100E300000F0CCF800208DF81A0001208DF81B007E
:100E400002208DF818004002059002208DF819004C
:100E500005A91B4800F072F802208DF818008002E6
:100E6000059005A9164800F069F84FF4E1300190AB
:100E70000020ADF80800ADF80A00ADF80C00ADF8A0
:100E800010000C20ADF80E0001A90E4800F03AFC4D
:100E900001210C4800F0CEFB012240F22551094807
:100EA00000F00BFC012240F22441064800F005FC52
:100EB00000F00AF80121034800F0BCFB07B000BDB8
:100EC000000402400048004008B54FF4A06000F064
:100ED000BFF927208DF8000000208DF801008DF863
:100EE000020001208DF80300684600F075F908BD86
:100EF00010B54FF4FA73002207A108A0FFF75EFDBA
:100F000008B9002010BD4FF4FA7308A202A108A08E
:100F1000FFF754FDF6E700004F4B000041542B4310
:100F200049504D4F44453D31000000003E00000057
:100F300041542B43495053454E440000F0B50A46F6
:100F400000210023002400BF3DE0012505FA01F344
:100F5000156805EA03049C4234D105684F00032656
:100F6000BE40B543056015794E00B540066835436F
:100F700005601579012D02D01579022D16D18568ED
:100F80004F000326BE40B543856055794E00B540FD
:100F9000866835438560456801268E40B5434560C7
:100FA000456896798E40B6B235434560C5684F00B6
:100FB0000326BE40B543C560D5794E00B540C6682E
:100FC0003543C560491C1029BFD3F0BDF0B50023DF
:100FD00000244D07ED0E02FA05F3CE1000F12005B6
:100FE00055F826504E07F70E0F26BE40B543CF10DA
:100FF00000F1200646F82750CE1000F1200555F8E4
:10100000265045EA0304CE1000F1200545F826409D
:10101000F0BD41837047018370470246002070474E
:1010200000BFFEE72DE9FC4705460E4690461C46EC
:101030004FF00009002705B11CB94FF0FF30BDE8A3
:10104000FC87B8F1000F01DB002E02DA6FF001001F
:10105000F5E7802001F08AF907463FB12B460D4A9B
:1010600080213846CDE9006800F054FC2CB13A46A6
:1010700009A1204600F062FC02E06FF00200DEE70A
:101080003846FFF7D3F88146384601F0E7F848467E
:10109000D5E7000028000020257300002DE9F84F57
:1010A00081468A4617469846DDF828B00020009011
:1010B000002400250026802001F058F9044614B9C8
:1010C000681EBDE8F88F802001F050F9054615B97B
:1010D0006FF00100F5E7402001F048F9064616B927
:1010E0006FF00200EDE72B465A4641463846FFF7BF
:1010F000AFFB0090234651464846009AFFF792FF07
:101100002B46224609A1304600F018FC324609A1C0
:101110000B9800F013FC204601F0A0F8284601F0DF
:101120009DF8304601F09AF80020CAE72573257330
:1011300000000000257300001CB50121052000F00F
:1011400093F80120009000208DF804008DF807002E
:1011500069460548FFF7F2FE4FF4005000906946DB
:101160000148FFF7EBFE1CBD000802401CB5012141
:10117000802000F079F84FF48060009001208DF815
:10118000040000208DF8060001208DF807000020E3
:101190008DF8050069460D48FFF7D0FE4FF400605A
:1011A000009069460948FFF7C9FE4FF4805000904F
:1011B00069460648FFF7C2FE4FF4806003491831C4
:1011C000088040000880400008801CBD001C0240D0
:1011D00000BFFEE77047000070B5002100230F221A
:1011E000C4781CB3174C246804F4E064C4F5E064CC
:1011F000C4F30721C1F10404E3B20A4144789C40DE
:10120000E1B28478144021430C07210E0E4C05787E
:101210006155047804F01F050124AC4005786D1178
:10122000AD0005F1E025C5F8004109E0047804F0BF
:101230001F050124AC40054D0678761145F826407F
:1012400070BD00000CED00E000E400E080E100E093
:1012500002490143024A1160704700000000FA058C
:101260000CED00E07047000029B1064A1268024305
:10127000044B1A6004E0034A12688243014B1A606F
:10128000704700003038024029B1064A1268024314
:10129000044B1A6004E0034A12688243014B1A604F
:1012A000704700004038024029B1064A12680243E4
:1012B000044B1A6004E0034A12688243014B1A602F
:1012C0007047000044380240F0B50021002200249D
:1012D000022500260223324F3F6807F00C0121B19E
:1012E000042905D0082937D105E02E4F076036E0E4
:1012F0002D4F076033E02A4F3F1F3F68C7F38056EA
:10130000274F3F1F3F6807F03F036EB1264FB7FBE3
:10131000F3F7DFF88CC0ACF1040CDCF800C0CCF3C0
:10132000881C07FB0CF40CE01E4FB7FBF3F7DFF84B
:1013300070C0ACF1040CDCF800C0CCF3881C07FBD7
:101340000CF4174F3F1F3F68C7F301477F1C7D0018
:10135000B4FBF5F7076002E0124F076000BF00BF63
:101360000F4F3F6807F0F0010909104F7A5C0768DA
:10137000D74047600A4F3F6807F4E051890A0B4F96
:101380007A5C4768D7408760054F3F6807F4604143
:10139000490B064F7A5C4768D740C760F0BD000034
:1013A000083802400024F40040787D011400002039
:1013B000704700000CB50020019000904148006883
:1013C00040F480303F49086000BF3E48006800F4A8
:1013D000003000900198401C0190009818B90198C5
:1013E000B0F5A04FF1D13748006800F4003010B1DB
:1013F0000120009001E0002000900098012860D1B9
:1014000030484030006840F080502E49403108603C
:101410002D48006840F440402B49086029480830B6
:1014200000682849083108600846006840F4004018
:1014300008600846006840F4A05008602348091F6F
:101440000860081F006840F08070091F086000BF36
:101450001C48006800F000700028F9D01A480068A5
:1014600040F480301849086000BF1748406800F415
:1014700080300028F9D01448006840F40030124948
:10148000086000BF1048406800F400300028F9D020
:1014900040F205700E4908600A480830006820F0E4
:1014A00003000849083108600846006840F002005F
:1014B000086000BF03480830006800F00C000828EE
:1014C000F8D10CBD0038024000700040195A4007A6
:1014D000003C024010B500F063F810BD30B515486F
:1014E0000068154AB0FBF2F1481EB0F1807F01D3CD
:1014F00001201BE0481E4FF0E022506150170F22E0
:10150000002807DA13071D0E0C4B00F00F04241FF0
:101510001D5503E013071C0E094B1C5400BF00208F
:101520004FF0E022906107201061002008B100BF59
:10153000FEE730BD0000002040420F0018ED00E043
:1015400000E400E010B51248006840F001001049C6
:10155000086000200E49083108600D4800680D49F8
:1015600008400B4908600C48091D0860081F006806
:1015700020F48020091F0860002005490C31086014
:10158000FFF718FF4FF000600449086010BD00002D
:1015900000380240FFFFF6FE1030002408ED00E0A6
:1015A0000448006820B103480068401E01490860F3
:1015B000704700002400002010B540F225511B4860
:1015C00000F051F8D8B1194800F006F9C4B2184833
:1015D000B0F80004C0F30E0040F2FF3188420EDA8A
:1015E0001349B1F80014C1F30E00411C104AB2F8BF
:1015F000002461F30E020E49A1F800240C5440F2BD
:1016000024410A4800F02FF801280DD10848B0F80D
:10161000000420F4004000F500400549A1F8000452
:10162000024800F0D9F8C4B210BD000000480040E4
:101630005402002021B1828942F40052828104E0E8
:1016400082894DF6FF731A4082817047024600205E
:10165000B1F5007F00D100BF13880B400BB1012012
:1016600000E00020704770B50246002400230025EA
:10167000002040F66A16B14200D100BFC1F3421506
:1016800001F01F03012606FA03F3012D02D196890A
:10169000334006E0022D02D1168A334001E0968ADB
:1016A00033400C12012606FA04F41688344013B1B4
:1016B0000CB1012000E0002070BDF0B5034600240D
:1016C00000260025002040F66A17B94200D100BF6D
:1016D0001846C1F3421401F01F06012707FA06F568
:1016E000012C01D10C3004E0022C01D1103000E0BB
:1016F00014301AB107682F43076002E00768AF4350
:101700000760F0BD2DE9FF4705460E460024A146BF
:1017100000BFA046B08900B100BF2C8A24F4405419
:10172000F08804432C82AC8941F20C608443B08879
:1017300031890843718908430443AC81AC8A24F49D
:101740004074B0890443AC826846FFF7BDFD204871
:10175000854202D01F48854202D1DDF80C9001E09D
:10176000DDF80890A88900F4004040B109EBC900F9
:1017700000EB091031684900B0FBF1F707E009EB15
:10178000C90000EB091031688900B0FBF1F7642053
:10179000B7FBF0F004012009642101FB1078A8894F
:1017A00000F4004040B1322000EBC800B0FBF1F083
:1017B00000F00700044308E0322000EB0810642129
:1017C000B0FBF1F000F00F0004432C81BDE8FF876F
:1017D000001001400014014001468888C0F3080051
:1017E0007047C1F30802828070470FB470B586B0AD
:1017F00006460CA8019073E00B9800785C281CD179
:101800000B98401C0B9000786E2809D072280FD1DD
:101810000D213046FFF7E5FF0B98401C0B900BE0C5
:101820000A213046FFF7DDFF0B98401C0B9003E0C8
:101830000B98401C0B9000BF4BE00B9800782528BC
:1018400040D10B98401C0B900078642818D0732866
:1018500033D1019810C801900BE021783046FFF792
:10186000C0FF00BF80213046FFF7F0FE0028F9D00E
:10187000641C20780028F0D10B98401C0B9020E0CD
:10188000019820C801900A2202A9284600F00EFD06
:1018900002AC0BE021783046FFF7A3FF00BF8021A8
:1018A0003046FFF7D3FE0028F9D0641C20780028CA
:1018B000F0D10B98401C0B9003E00B98401C0B9050
:1018C00000BF06E00B9810F8011B0B903046FFF7A5
:1018D00088FF00BF80213046FFF7B8FE0028F9D00E
:1018E0000B980078002887D106B070BC5DF814FB17
:1018F00000BFFEE70FB4054B10B503A9044A0298D8
:1019000000F0F2F810BC5DF814FB0000392200086A
:10191000480200200FB41CB50A46521ECDE9000251
:1019200007A9054B6A46069800F0DEF8009A0021E8
:1019300011701CBC5DF814FB172200080FB4084B93
:1019400010B504A902AA039800F0CEF8044602A933
:10195000002000F06BFC204610BC5DF814FB00007A
:101960002D22000802E008C8121F08C1002AFAD17F
:1019700070477047002001E001C1121F002AFBD10F
:10198000704700002DE9FF5FDDE90220010DDDF861
:1019900038B0024318D044F61050A1F2FF31414351
:1019A0000D140F98012820D0A5EB0B00401C5FEA16
:1019B000000A4FF00004474EDFF81C91A046504645
:1019C00016D5CAF1000728E00F98012443A2012888
:1019D00008D0002100980F9BC0E90021C0E9024314
:1019E000BDE8FF9F6FEA0B01F4E7CBF10000DEE7F3
:1019F000074612E0F80707D02246334640464946DC
:101A0000FEF709FD804689462246334610461946B0
:101A1000FEF701FD04460E467F10002FEAD1DDE9F6
:101A20000201BAF1000F42464B4602DAFEF7F3FC20
:101A300001E0FEF762FD04460E460022284BFEF749
:101A4000E3FD03D84FF0FF30014607E00022254BAD
:101A500020463146FEF738FCFEF7BEFD102409E0B3
:101A6000002C0ADB0A220023FEF7FDFB019B30322B
:101A70001A55641E50EA0102F2D1641C019AC4F1A5
:101A8000110314440F9A012A03D0012208430DD1F7
:101A90000AE0084304D000204FF0110B0F9080E7BC
:101AA000A3EB0B056D1E0DE05B4504DD4FF000025E
:101AB00005F1010504E003DA4FF00002A5F101058C
:101AC000002AECD000980F99C0E90231C0E9004526
:101AD00086E70000000024400000F03F30000000D6
:101AE0000000F0430000E03F2DE9FF4F95B09B461A
:101AF0008946064600250FE2252877D1002427468F
:101B0000F84A0121059400E0044316F8013F203B08
:101B100001FA03F01042F7D130782A2811D06FF083
:101B20002F033078A0F13002092A16D8059A44F024
:101B3000020402EB820203EB42021044761C059081
:101B4000EFE759F8042B0592002A03DA504244F4D7
:101B50000054059044F00204761C30782E2816D1EB
:101B600016F8010F44F004042A280DD06FF02F025C
:101B70003078A0F13003092B09D807EB870302EB7B
:101B80004303C718761CF3E759F8047B761C3078BA
:101B90006C280FD006DC4C2817D068280DD06A2896
:101BA00014D104E0742810D07A280FD10DE044F449
:101BB00000140AE044F4801401E044F44014727804
:101BC000824202D104F58014761C761C3078662897
:101BD0000BD013DC582877D009DC002875D04528B5
:101BE000F6D04628F4D047281AD19DE118E06328A2
:101BF00035D0642879D0652812D195E1702873D04A
:101C000008DC6728F1D069286FD06E280DD06F28C6
:101C100006D1B5E073282CD0752875D0782874D0FB
:101C20005A46179990476D1C75E1C4F3025002287B
:101C300009D003280DD0D9F8001004280DD00D606C
:101C400009F1040967E1D9F80010EA17C1E9005267
:101C5000F6E7D9F800100D80F2E70D70F0E719F8FB
:101C6000041B8DF8001000208DF80100EA460120C9
:101C700003E059F804AB4FF0FF3061074FF000016B
:101C800002D40DE008F101018846B9420FDA80451F
:101C9000F8DB1AF808100029F4D108E008F1010176
:101CA00088468142FADB1AF808100029F6D1059817
:101CB0005B46A0EB080721463846179A00F094FAD5
:101CC000284400EB080507E04DE029E10DE01AF893
:101CD000010B5A4617999047B8F10108F7D25B46B5
:101CE00021463846179A13E142E00A220092C4F3D3
:101CF00002524FF0000A022A08D059F804CB032AF6
:101D00004FEAEC710AD00DE029E02AE009F1070161
:101D100021F00702F2E802C1914609E00FFA8CFCBB
:101D20004FEAEC71042A03D14FFA8CFC4FEAEC71B4
:101D3000002907DA0A460021DCF1000C61EB020100
:101D40002D2202E0220504D52B228DF80420012249
:101D500003E0E20701D02022F7E7904659E00A218C
:101D600002E010220DE010214FF0000A00910BE07C
:101D700010224FF0000A44F004040827009203E008
:101D800008224FF0000A0092C4F30252022A05D042
:101D900059F804CB0021032A08D009E009F1070112
:101DA00021F00702F2E802C1914605E01FFA8CFC1F
:101DB000042A01D10CF0FF0C4FF00008220728D5AF
:101DC000702806D0009B83F0100353EA0A0305D065
:101DD0000EE040228DF80420012208E05CEA0102B6
:101DE00006D030228DF804208DF80500022290469E
:101DF000009B83F0080353EA0A030AD15CEA01025C
:101E000001D1620705D530228DF804204FF001087A
:101E10007F1E582804D034A003900EA802900DE035
:101E200036A0F9E753466046009AFEF71CFA84464E
:101E30000398825C0298401E029002705CEA0100E6
:101E4000F0D1029806A9081A00F1200A600702D50D
:101E500024F4803400E00127574502DDA7EB0A0097
:101E600000E0002000EB0A01009005984144401A70
:101E70000590E00306D45B462146179A059800F0CA
:101E8000B3F90544002706E001A85A46C05D17993A
:101E900090476D1C7F1C4745F6DBE0030CD55B4685
:101EA0002146179A059800F09FF9054404E0302078
:101EB0005A46179990476D1C0099481E00900029BA
:101EC000F5DC08E0029802995A460078491C029114
:101ED000179990476D1CBAF10001AAF1010AF1DCD3
:101EE00065E10000092801003031323334353637DE
:101EF0003839616263646566000000003031323356
:101F000034353637383941424344454600000000F5
:101F100000F058F90544761C307800287FF4ECADC9
:101F200019B02846BDE8F08F620700D4062709F1F2
:101F3000070222F0070CFCE80223E14603F0004808
:101F40005FEA080C02D00FF2702C0DE05FEA045C2F
:101F500002D50FF2682C07E05FEAC47C02D00FF2D2
:101F6000602C01E0AFF2700C4FF0FF3823F000431B
:101F7000CDF850C065280CD006DC452809D046288D
:101F80001DD047283DD13DE0662818D067287ED176
:101F900038E00021112F01DB112000E0781CCDE991
:101FA000000106A90EA8FFF7EDFCDDE90F010E9A6E
:101FB00003910021009207F1010A04914DE04FF0D6
:101FC00000400097CDE9011006A90EA8FFF7DAFC42
:101FD000DDE90F0203920E9B11990022DDF80CA09F
:101FE0000093049211B9791C00EB010AB7EB0A00C7
:101FF00004D4C0F1FF3007F1010A0490AAEB0700F6
:10200000019044E0012F00DA01270021112F01DDAA
:10201000112000E03846CDE9000106A90EA8FFF71F
:10202000B1FCDDE90F010E9A0391002104910092A9
:10203000BA4621070CD40399514500DA8A46BAF111
:10204000010F05DD009AAAF10101515C302908D089
:10205000B84202DA10F1040F06DA0121CDE90110CD
:1020600015E0AAF10101E9E7002805DC0499014423
:102070000491AAEB000102E0411C514500DD8A46B3
:102080000499401A401C01904FF000400290200734
:1020900004D40198504501DBCDF8048000208DF870
:1020A0004F0002980DF14F07B0F1004F25D02B20C3
:1020B0000E9002984FF0020800280CDA404202907D
:1020C0002D200E9007E00A210298FEF7B6F8303175
:1020D000029007F8011DB8F10001A8F10108F2DC37
:1020E00002980028EFD1791E0E980870307800F021
:1020F000200040F0450007F8020D12A8C01B00F1B7
:1021000007081498007800B1012000EB0A0101983B
:1021100001EBE07105984144401A401E0590E00330
:1021200006D45B462146179A059800F05DF80544F1
:102130001498007818B15A46179990476D1CE0031F
:1021400024D55B462146179A059800F04DF80544C2
:102150001CE00498002807DBDDE90301884203DD69
:102160000098405C179901E0179930205A46904733
:10217000049805F10105401C04900198401E01904F
:1021800004D12E205A46179990476D1CBAF10001D0
:10219000AAF1010ADDDC05E017F8010B5A46179990
:1021A00090476D1CB8F10001A8F10108F4DC5B4612
:1021B0002146179A0598ABE62D0000002B00000081
:1021C000200000002DE9F041044600251E46174678
:1021D000880404D405E039462020B0476D1C641EF5
:1021E000F9D52846BDE8F0812DE9F04104460025E7
:1021F0001E469046C80301D5302700E020278804FA
:1022000004D505E041463846B0476D1C641EF9D53B
:102210002846BDE8F0814A68002A06D00A68531CA7
:102220000B6010704868401E486070470A68531C75
:102230000B6010707047000070B504460D46E1B2A7
:102240000548FFF7CEFA00BF80210348FFF7FEF9EB
:102250000028F9D0204670BD0010014010B50028BC
:1022600021D0114B0022001F196803E0814203D8DE
:102270000A4649680029F9D152B11368841A9C4270
:1022800004D1006818441060104602E0506000E07D
:10229000186039B102680B1A934203D10B681A44D3
:1022A00002604968416010BD4C020020F0B5034651
:1022B0000D461646002729460A2E03D00020087036
:1022C0002846F0BD33B9302001F8010B002008701A
:1022D0002846F6E7002B03DA2D2001F8010B5B42BC
:1022E00042F210720DE093FBF2F404B937B104F13D
:1022F000300001F8010B04FB123301270A2092FB86
:10230000F0F2002AEFDC002008702846D9E7000030
:10231000FEF7D8FAFFF7E2F8FEF7F2FBFEF726FF2A
:10232000FEF75AFAFEF708FFFEF778FA04A0FFF767
:10233000E1FA00F051F8FEF711FD00BFFEE70000E2
:102340000D0A2A2A2AD2B0BBF046343239CCF4D551
:10235000BDD5DF415050BFD8D6C6BFAAB7A2B0E5A1
:10236000CAB5D1E92A2A2A0D0A000000F0B50B30BF
:10237000154D20F007010024144A0FE003688B423A
:102380000BD38B4205D95E1A43184768C3E900672F
:1023900000E04368136002C004E0021D10680028DA
:1023A000ECD12046002802D1286808B10020F0BDF9
:1023B000064A07481060074A121A22F00702C0E9CD
:1023C000002401202860D7E7500200204C020020A2
:1023D0005C0600205808002010B514A0FFF78AFA08
:1023E00008211948FEF717FEFEF7C4FA0020FEF791
:1023F00019FC00BF15A118A0FEF794FB0028F9D026
:102400000020FEF73BFB00BF052316A216A100200B
:10241000FEF7A8FB0028F7D000BFFEF769FD0028F3
:10242000FBD015A0FFF766FA10BD00000D0AD5FD20
:10243000D4DAC5E4D6C32045535038323636202E80
:102440002E2E2E2E2E0D0A000000024064636869B5
:102450007032303139000000524443656E74657249
:1024600000000000383800003133392E3139392E60
:10247000372E3231350000000D0AC5E4D6C32045A1
:1024800053503832363620CDEAB1CF0D0A00000065
:10249000B024000800000020540200007807000863
:1024A0009825000854020020040A0000741900084E
:1024B00050060095BA0A00016009010203040607EC
:1024C00008090CA110005F17504F5354202F617062
:1024D000692F75706C6F61642F6D657373616765CB
:1024E0007320485454502F312E310D0A486F7374A5
:1024F0003A2025733A25640D0A636F6E74656E7415
:102500002D747970653A206D756C746970617274A0
:102510002F666F726D2D646174613B20626F756E02
:10252000646172793D2D01101433353934343331FF
:102530003432323230343830373038330A83373936
:102540006010076C656E6774687711740004180D6D
:102550000A004B011A4D52434D900E446973706F3F
:10256000736974696F6E3A20AA10076E616D653DDC
:10257000220C2365226600055A25730D0A690006A0
:102580006374657874316A00053C706C6163D4785B
:08259000042D2D0D4151010045
:04000005080001AD41
:00000001FF
